:020000040000fa
:080000000002040000000000f2
:020000040000fa
:0400080050030000a1
:020000040000fa
:04000c00500300009d
:020000040000fa
:040010005003000099
:020000040000fa
:040014005003000095
:020000040000fa
:040018005003000091
:020000040000fa
:04001c00500300008d
:020000040000fa
:040020005003000089
:020000040000fa
:040024005003000085
:020000040000fa
:040028005003000081
:020000040000fa
:04002c00500300007d
:020000040000fa
:040030005003000079
:020000040000fa
:04003400c8020000fe
:020000040000fa
:040038005003000071
:020000040000fa
:04003c00500300006d
:020000040000fa
:040040005003000069
:020000040000fa
:040044005003000065
:020000040000fa
:040048005003000061
:020000040000fa
:04004c00500300005d
:020000040000fa
:040050005003000059
:020000040000fa
:040054005003000055
:020000040000fa
:040058005003000051
:020000040000fa
:04005c00500300004d
:020000040000fa
:040060005003000049
:020000040000fa
:040064005003000045
:020000040000fa
:040068005003000041
:020000040000fa
:04006c00500300003d
:020000040000fa
:040070005003000039
:020000040000fa
:040074001403000071
:020000040000fa
:040078005003000031
:020000040000fa
:04007c00500300002d
:020000040000fa
:040080005003000029
:020000040000fa
:040084005003000025
:020000040000fa
:040088005003000021
:020000040000fa
:04008c00500300001d
:020000040000fa
:040090005003000019
:020000040000fa
:040094005003000015
:020000040000fa
:040098005003000011
:020000040000fa
:04009c00500300000d
:020000040000fa
:0400a0005003000009
:020000040000fa
:0400a4005003000005
:020000040000fa
:0400a8005003000001
:020000040000fa
:0400ac0050030000fd
:020000040000fa
:0400b00050030000f9
:020000040000fa
:0400b40050030000f5
:020000040000fa
:0400b80050030000f1
:020000040000fa
:0400bc0050030000ed
:020000040000fa
:0400c00050030000e9
:020000040000fa
:0400c40050030000e5
:020000040000fa
:0400c80050030000e1
:020000040000fa
:0400cc0050030000dd
:020000040000fa
:0400d00050030000d9
:020000040000fa
:0400d40050030000d5
:020000040000fa
:0400d80050030000d1
:020000040000fa
:0400dc0050030000cd
:020000040000fa
:0400e00050030000c9
:020000040000fa
:0400e40050030000c5
:020000040000fa
:0400e80050030000c1
:020000040000fa
:0400ec0050030000bd
:020000040000fa
:0400f00050030000b9
:020000040000fa
:0400f40050030000b5
:020000040000fa
:0400f80050030000b1
:020000040000fa
:0400fc0050030000ad
:020000040000fa
:0401000050030000a8
:020000040000fa
:0401040050030000a4
:020000040000fa
:0401080050030000a0
:020000040000fa
:04010c00500300009c
:020000040000fa
:040110005003000098
:020000040000fa
:040114005003000094
:020000040000fa
:040118005003000090
:020000040000fa
:04011c00500300008c
:020000040000fa
:040120005003000088
:020000040000fa
:040124005003000084
:020000040000fa
:040128005003000080
:020000040000fa
:04012c00500300007c
:020000040000fa
:040130005003000078
:020000040000fa
:040134005003000074
:020000040000fa
:040138005003000070
:020000040000fa
:04013c00500300006c
:020000040000fa
:040140005003000068
:020000040000fa
:040144005003000064
:020000040000fa
:040148005003000060
:020000040000fa
:04014c00500300005c
:020000040000fa
:040150005003000058
:020000040000fa
:04020800500300009f
:020000040000fa
:04020c00500300009b
:020000040000fa
:040210005003000097
:020000040000fa
:040214005003000093
:020000040000fa
:04021800500300008f
:020000040000fa
:04021c00500300008b
:020000040000fa
:040220005003000087
:020000040000fa
:040224005003000083
:020000040000fa
:04022800500300007f
:020000040000fa
:04022c00500300007b
:020000040000fa
:040230005003000077
:020000040000fa
:04023400c8020000fc
:020000040000fa
:04023800500300006f
:020000040000fa
:04023c00500300006b
:020000040000fa
:040240005003000067
:020000040000fa
:040244005003000063
:020000040000fa
:04024800500300005f
:020000040000fa
:04024c00500300005b
:020000040000fa
:040250005003000057
:020000040000fa
:040254005003000053
:020000040000fa
:04025800500300004f
:020000040000fa
:04025c00500300004b
:020000040000fa
:040260005003000047
:020000040000fa
:040264005003000043
:020000040000fa
:04026800500300003f
:020000040000fa
:04026c00500300003b
:020000040000fa
:040270005003000037
:020000040000fa
:04027400140300006f
:020000040000fa
:04027800500300002f
:020000040000fa
:04027c00500300002b
:020000040000fa
:040280005003000027
:020000040000fa
:040284005003000023
:020000040000fa
:04028800500300001f
:020000040000fa
:04028c00500300001b
:020000040000fa
:040290005003000017
:020000040000fa
:040294005003000013
:020000040000fa
:04029800500300000f
:020000040000fa
:04029c00500300000b
:020000040000fa
:0402a0005003000007
:020000040000fa
:0402a4005003000003
:020000040000fa
:0402a80050030000ff
:020000040000fa
:0402ac0050030000fb
:020000040000fa
:0402b00050030000f7
:020000040000fa
:0402b40050030000f3
:020000040000fa
:0402b80050030000ef
:020000040000fa
:0402bc0050030000eb
:020000040000fa
:0402c00050030000e7
:020000040000fa
:0402c40050030000e3
:020000040000fa
:0402c80050030000df
:020000040000fa
:0402cc0050030000db
:020000040000fa
:0402d00050030000d7
:020000040000fa
:0402d40050030000d3
:020000040000fa
:0402d80050030000cf
:020000040000fa
:0402dc0050030000cb
:020000040000fa
:0402e00050030000c7
:020000040000fa
:0402e40050030000c3
:020000040000fa
:0402e80050030000bf
:020000040000fa
:0402ec0050030000bb
:020000040000fa
:0402f00050030000b7
:020000040000fa
:0402f40050030000b3
:020000040000fa
:0402f80050030000af
:020000040000fa
:0402fc0050030000ab
:020000040000fa
:0403000050030000a6
:020000040000fa
:0403040050030000a2
:020000040000fa
:04030800500300009e
:020000040000fa
:04030c00500300009a
:020000040000fa
:040310005003000096
:020000040000fa
:040314005003000092
:020000040000fa
:04031800500300008e
:020000040000fa
:04031c00500300008a
:020000040000fa
:040320005003000086
:020000040000fa
:040324005003000082
:020000040000fa
:04032800500300007e
:020000040000fa
:04032c00500300007a
:020000040000fa
:040330005003000076
:020000040000fa
:040334005003000072
:020000040000fa
:04033800500300006e
:020000040000fa
:04033c00500300006a
:020000040000fa
:040340005003000066
:020000040000fa
:040344005003000062
:020000040000fa
:04034800500300005e
:020000040000fa
:04034c00500300005a
:020000040000fa
:040350005003000056
:020000040000fa
:100400006f8020000ebf20000e0188000000000059
:10041000000020000000e000020032000001200087
:1004200020028800140007009f0007000000e00081
:1004300003003a00c03d2000010020000200370008
:100440000000200001002000810f70000100320038
:1004500014000700000020000000e000020032004d
:1004600000000200000000006a030200000000001b
:100470000040da000000fe004440a90040012000d6
:100480000000e0000300320000002000a00188000e
:100490004440a800000006008a1f78008b1f7800e7
:1004a0000000060091018800800478000000eb0045
:1004b0001a003700e284440032a0b4009905ba0063
:1004c000e284440032a0b4009906ba00e2844400f9
:1004d00032a0b4000006eb00476fde00fd07b2005b
:1004e000636ce10003003a00ebff07000000eb0043
:1004f0000a003700606ce10004003a00005deb0088
:100500008b05e900fdff3e00040037006168e10053
:10051000010032000086eb000b00070019c7ba008b
:100520001905ba000e04e00003003a000a00e000da
:10053000e0ff3a0000000600fe07b2009e018800be
:100540008a047800f5ff3700395dba008b05e900b1
:100550000c003200295dba008b05e900080032006a
:100560000c00e00003003a00e284440032a0b40032
:10057000f5ff370019ddba008b05e900faff3a00f4
:100580008904e800e184440032a0b40000000600c1
:10059000809fbe00821f78003400f8000000200019
:1005a000a00188000000fa008460a90000408000db
:1005b000e90f500004003c00004080000000e8000b
:1005c00000408800130037000028ef001040800032
:1005d000e90f50000e003c006116800000f02f0073
:1005e00080806000104080000001400060352800dd
:1005f00000004100100078000100700060168800c3
:10060000104080000000e800104088000100370022
:100610000228ef000080fa003400f9004f01780052
:100620004f00be0000400600809fbe003400f8006e
:1006300000002000a00188000000fa002040800097
:100640000000e0000e003a00200880000080ea0070
:100650004f00de00004078000080fb004f00dd000e
:100660002108800001f0a10001007000200888002e
:10067000204080000000e800204088000300370090
:10068000204080000000e900204088008660a9002a
:100690000080fa003400f9004f00be000040060060
:0c06a0000040da000000fe000000050031
:020000040000fa
:1006ac003f000000060000005b0000004f0000004f
:1006bc00660000006d0000007d00000007000000d7
:0806cc007f0000006f00000038
:020000040000fa
:1006d4000000fa0004000700170007002b000700c1
:1006e4002e000700ffff37000000fa0090022000f0
:1006f400303a8800213a8000f0f32f000080600037
:10070400203a8800213a800000fe2f00008060001b
:10071400203a880000000000113a80000000270001
:100724008080600000002100808f5000faff3a00b2
:100734000080fa00000006000000fa0005e1a900ac
:100744000421a90004c1a90021088000000320009d
:1007540001007000200888000021ef0090d02300e1
:100764001008880021058000f0ff28000080600048
:1007740000c0a000200588008460a9009460a8003f
:1007840005e1a8000080fa00000006000000fa005d
:10079400c822ef000080fa00000006000000fa0002
:1007a4006000a8008660a9009660a8000080fa0096
:0407b400000006003b
:020000040000fa
:1007b8000008000006000000000000000000000023
:020000040000fa
:0200000401f009
:04000c00810000006f
:020000040000fa
:0200000401f009
:040010006700000085
:00000001FF
