:020000040000fa
:080000000002040000000000f2
:020000040000fa
:0400080030030000c1
:020000040000fa
:04000c0030030000bd
:020000040000fa
:0400100030030000b9
:020000040000fa
:0400140030030000b5
:020000040000fa
:0400180030030000b1
:020000040000fa
:04001c0030030000ad
:020000040000fa
:0400200030030000a9
:020000040000fa
:0400240030030000a5
:020000040000fa
:0400280030030000a1
:020000040000fa
:04002c00300300009d
:020000040000fa
:040030003003000099
:020000040000fa
:040034003003000095
:020000040000fa
:040038003003000091
:020000040000fa
:04003c00300300008d
:020000040000fa
:040040003003000089
:020000040000fa
:04004400c8020000ee
:020000040000fa
:040048003003000081
:020000040000fa
:04004c00300300007d
:020000040000fa
:040050003003000079
:020000040000fa
:040054003003000075
:020000040000fa
:04005800020300009f
:020000040000fa
:04005c00300300006d
:020000040000fa
:040060003003000069
:020000040000fa
:040064003003000065
:020000040000fa
:040068003003000061
:020000040000fa
:04006c00300300005d
:020000040000fa
:040070003003000059
:020000040000fa
:040074003003000055
:020000040000fa
:040078003003000051
:020000040000fa
:04007c00300300004d
:020000040000fa
:040080003003000049
:020000040000fa
:040084003003000045
:020000040000fa
:040088003003000041
:020000040000fa
:04008c00300300003d
:020000040000fa
:040090003003000039
:020000040000fa
:040094003003000035
:020000040000fa
:040098003003000031
:020000040000fa
:04009c00300300002d
:020000040000fa
:0400a0003003000029
:020000040000fa
:0400a4003003000025
:020000040000fa
:0400a8003003000021
:020000040000fa
:0400ac00300300001d
:020000040000fa
:0400b0003003000019
:020000040000fa
:0400b4003003000015
:020000040000fa
:0400b8003003000011
:020000040000fa
:0400bc00300300000d
:020000040000fa
:0400c0003003000009
:020000040000fa
:0400c4003003000005
:020000040000fa
:0400c8003003000001
:020000040000fa
:0400cc0030030000fd
:020000040000fa
:0400d00030030000f9
:020000040000fa
:0400d40030030000f5
:020000040000fa
:0400d80030030000f1
:020000040000fa
:0400dc0030030000ed
:020000040000fa
:0400e00030030000e9
:020000040000fa
:0400e40030030000e5
:020000040000fa
:0400e80030030000e1
:020000040000fa
:0400ec0030030000dd
:020000040000fa
:0400f00030030000d9
:020000040000fa
:0400f40030030000d5
:020000040000fa
:0400f80030030000d1
:020000040000fa
:0400fc0030030000cd
:020000040000fa
:0401000030030000c8
:020000040000fa
:0401040030030000c4
:020000040000fa
:0401080030030000c0
:020000040000fa
:04010c0030030000bc
:020000040000fa
:0401100030030000b8
:020000040000fa
:0401140030030000b4
:020000040000fa
:0401180030030000b0
:020000040000fa
:04011c0030030000ac
:020000040000fa
:0401200030030000a8
:020000040000fa
:0401240030030000a4
:020000040000fa
:0401280030030000a0
:020000040000fa
:04012c00300300009c
:020000040000fa
:040130003003000098
:020000040000fa
:040134003003000094
:020000040000fa
:040138003003000090
:020000040000fa
:04013c00300300008c
:020000040000fa
:040140003003000088
:020000040000fa
:040144003003000084
:020000040000fa
:040148003003000080
:020000040000fa
:04014c00300300007c
:020000040000fa
:040150003003000078
:020000040000fa
:0402080030030000bf
:020000040000fa
:04020c0030030000bb
:020000040000fa
:0402100030030000b7
:020000040000fa
:0402140030030000b3
:020000040000fa
:0402180030030000af
:020000040000fa
:04021c0030030000ab
:020000040000fa
:0402200030030000a7
:020000040000fa
:0402240030030000a3
:020000040000fa
:04022800300300009f
:020000040000fa
:04022c00300300009b
:020000040000fa
:040230003003000097
:020000040000fa
:040234003003000093
:020000040000fa
:04023800300300008f
:020000040000fa
:04023c00300300008b
:020000040000fa
:040240003003000087
:020000040000fa
:04024400c8020000ec
:020000040000fa
:04024800300300007f
:020000040000fa
:04024c00300300007b
:020000040000fa
:040250003003000077
:020000040000fa
:040254003003000073
:020000040000fa
:04025800020300009d
:020000040000fa
:04025c00300300006b
:020000040000fa
:040260003003000067
:020000040000fa
:040264003003000063
:020000040000fa
:04026800300300005f
:020000040000fa
:04026c00300300005b
:020000040000fa
:040270003003000057
:020000040000fa
:040274003003000053
:020000040000fa
:04027800300300004f
:020000040000fa
:04027c00300300004b
:020000040000fa
:040280003003000047
:020000040000fa
:040284003003000043
:020000040000fa
:04028800300300003f
:020000040000fa
:04028c00300300003b
:020000040000fa
:040290003003000037
:020000040000fa
:040294003003000033
:020000040000fa
:04029800300300002f
:020000040000fa
:04029c00300300002b
:020000040000fa
:0402a0003003000027
:020000040000fa
:0402a4003003000023
:020000040000fa
:0402a800300300001f
:020000040000fa
:0402ac00300300001b
:020000040000fa
:0402b0003003000017
:020000040000fa
:0402b4003003000013
:020000040000fa
:0402b800300300000f
:020000040000fa
:0402bc00300300000b
:020000040000fa
:0402c0003003000007
:020000040000fa
:0402c4003003000003
:020000040000fa
:0402c80030030000ff
:020000040000fa
:0402cc0030030000fb
:020000040000fa
:0402d00030030000f7
:020000040000fa
:0402d40030030000f3
:020000040000fa
:0402d80030030000ef
:020000040000fa
:0402dc0030030000eb
:020000040000fa
:0402e00030030000e7
:020000040000fa
:0402e40030030000e3
:020000040000fa
:0402e80030030000df
:020000040000fa
:0402ec0030030000db
:020000040000fa
:0402f00030030000d7
:020000040000fa
:0402f40030030000d3
:020000040000fa
:0402f80030030000cf
:020000040000fa
:0402fc0030030000cb
:020000040000fa
:0403000030030000c6
:020000040000fa
:0403040030030000c2
:020000040000fa
:0403080030030000be
:020000040000fa
:04030c0030030000ba
:020000040000fa
:0403100030030000b6
:020000040000fa
:0403140030030000b2
:020000040000fa
:0403180030030000ae
:020000040000fa
:04031c0030030000aa
:020000040000fa
:0403200030030000a6
:020000040000fa
:0403240030030000a2
:020000040000fa
:04032800300300009e
:020000040000fa
:04032c00300300009a
:020000040000fa
:040330003003000096
:020000040000fa
:040334003003000092
:020000040000fa
:04033800300300008e
:020000040000fa
:04033c00300300008a
:020000040000fa
:040340003003000086
:020000040000fa
:040344003003000082
:020000040000fa
:04034800300300007e
:020000040000fa
:04034c00300300007a
:020000040000fa
:040350003003000076
:020000040000fa
:100400008f8820000ebf20000e0188000000000031
:10041000000020000000e000020032000001200087
:1004200020028800140007008f0007000000e00091
:1004300003003a006047200001002000020037005e
:100440000000200001002000810f70000100320038
:1004500014000700000020000000e000020032004d
:100460000000020000000000720302000000000013
:100470000040da000000fe004440a900c000200057
:100480000000e0000300320000002000a00188000e
:100490004440a800000006008a1f78008b1f7800e7
:1004a0000000060091018800800478000000eb0045
:1004b0001a003700e284440032a0b4009905ba0063
:1004c000e284440032a0b4009906ba00e2844400f9
:1004d00032a0b4000006eb00476fde00fd07b2005b
:1004e000636ce10003003a00ebff07000000eb0043
:1004f0000a003700606ce10004003a00005deb0088
:100500008b05e900fdff3e00040037006168e10053
:10051000010032000086eb000b00070019c7ba008b
:100520001905ba000e04e00003003a000a00e000da
:10053000e0ff3a0000000600fe07b2009e018800be
:100540008a047800f5ff3700395dba008b05e900b1
:100550000c003200295dba008b05e900080032006a
:100560000c00e00003003a00e284440032a0b40032
:10057000f5ff370019ddba008b05e900faff3a00f4
:100580008904e800e184440032a0b40000000600c1
:100590003600f800809fbe00829fbe00849fbe0090
:1005a000869fbe000000fa0084e0a90001802000c0
:1005b0006036280096000700601680000000d10019
:1005c000614060000004a200614060000080fb0008
:1005d0006100600000004000611680000110a10071
:1005e00001007000601688000080fa004f03be0012
:1005f0004f02be004f01be004f00be003600f900a2
:1006000000400600809fbe000000fa008580a9001f
:100610001144800000448000808f500009003100a8
:10062000104480000180200081004000914078004b
:100630008100fb00211188000000e80010448800c0
:100640000400370021448000c0ff2f0000806000bc
:10065000204488000080fa004f00be0000400600e1
:100660000040da000000fe00000005008000780075
:10067000040037003104e00002003a00000051009d
:1006800000000600010178000108a300f9ff3a000c
:100690008101780031017800f4ef2f00020242005e
:1006a0000281ea00020162000408280004016100de
:1006b000f7ff320083007800010178003104e00088
:0c06c000fdff3a000000510000000600a1
:020000040000fa
:1006cc004d690000637200006f730000203200005f
:0806dc00210a00000d000000de
:020000040000fa
:1006e4000000fa0004000700170007001a000700c2
:1006f4002f000700ffff37000000fa0090022000df
:10070400303a8800213a8000f0f32f000080600026
:10071400203a8800213a800000fe2f00008060000b
:10072400203a880000000000113a800000002700f1
:100734008080600000002100808f5000faff3a00a2
:100744000080fa00000006000000fa00c822ef0052
:100754000080fa00000006000000fa0011e1a90080
:100764001061a9001021a90010c1a900810880000e
:100774000003200001007000800888000080eb0066
:10078400600888000621ef0031058000f0ff280092
:100794000080600000c0a0003005880084e0a9004b
:1007a40094e0a80011e1a8000080fa00000006000f
:1007b4000000fa002002a9000111800090ff2f0020
:1007c400008060000011880020a2a9002062a90016
:1007d400301020004011880001000700ffff37009f
:1007e4000000fa0023a2a90023e2a9009580a80032
:1007f40021e2a8002342a800c862a900003020001a
:10080400103688000080fa00000006000800fa0094
:1008140020079800310798003e0090002080900047
:10082400630060000000e000020032000040eb00c2
:100834002b0037002e0090008bff07001007980054
:100844001e0090000000e000040032009e009000b2
:10085400f0072000808f5000020036000040eb00bb
:100864001f0037000000eb00000f7800070037007e
:100874002e0090001e004000904078003e00900042
:100884001e004000014878001e0fe8001e00900082
:100894009e007800808f5000f5ff39003e009000e4
:1008a4009e009000018098003e00900011002000fe
:1008b400118098003e00900020819000c1ff2f001d
:1008c400810061000100a000218098003e0090009a
:1008d400104078000000fb002011880010c0b30015
:0808e4000080fa00000006008c
:020000040000fa
:1008ec00000800008800000000000000000000006c
:020000040000fa
:0200000401f009
:04000c00810000006f
:020000040000fa
:0200000401f009
:040010006700000085
:00000001FF
