:020000040000fa
:080000000002040000000000f2
:020000040000fa
:04000800f6030000fb
:020000040000fa
:04000c00f6030000f7
:020000040000fa
:04001000f6030000f3
:020000040000fa
:04001400f6030000ef
:020000040000fa
:04001800f6030000eb
:020000040000fa
:04001c00f6030000e7
:020000040000fa
:04002000f6030000e3
:020000040000fa
:04002400f6030000df
:020000040000fa
:04002800c80200000a
:020000040000fa
:04002c00f6030000d7
:020000040000fa
:04003000f6030000d3
:020000040000fa
:04003400f6030000cf
:020000040000fa
:04003800f6030000cb
:020000040000fa
:04003c00f6030000c7
:020000040000fa
:04004000f6030000c3
:020000040000fa
:04004400f6030000bf
:020000040000fa
:04004800f6030000bb
:020000040000fa
:04004c00f6030000b7
:020000040000fa
:04005000f6030000b3
:020000040000fa
:04005400f6030000af
:020000040000fa
:04005800f6030000ab
:020000040000fa
:04005c00f6030000a7
:020000040000fa
:04006000f6030000a3
:020000040000fa
:04006400f60300009f
:020000040000fa
:04006800f60300009b
:020000040000fa
:04006c00f603000097
:020000040000fa
:04007000f603000093
:020000040000fa
:04007400f60300008f
:020000040000fa
:04007800f60300008b
:020000040000fa
:04007c00f603000087
:020000040000fa
:04008000f603000083
:020000040000fa
:04008400f60300007f
:020000040000fa
:04008800f60300007b
:020000040000fa
:04008c00f603000077
:020000040000fa
:04009000f603000073
:020000040000fa
:04009400f60300006f
:020000040000fa
:04009800f60300006b
:020000040000fa
:04009c00f603000067
:020000040000fa
:0400a000f603000063
:020000040000fa
:0400a400f60300005f
:020000040000fa
:0400a800f60300005b
:020000040000fa
:0400ac00f603000057
:020000040000fa
:0400b000f603000053
:020000040000fa
:0400b400f60300004f
:020000040000fa
:0400b800f60300004b
:020000040000fa
:0400bc00f603000047
:020000040000fa
:0400c000f603000043
:020000040000fa
:0400c400f60300003f
:020000040000fa
:0400c800f60300003b
:020000040000fa
:0400cc00f603000037
:020000040000fa
:0400d000f603000033
:020000040000fa
:0400d400f60300002f
:020000040000fa
:0400d800f60300002b
:020000040000fa
:0400dc00f603000027
:020000040000fa
:0400e000f603000023
:020000040000fa
:0400e400f60300001f
:020000040000fa
:0400e800f60300001b
:020000040000fa
:0400ec00f603000017
:020000040000fa
:0400f000f603000013
:020000040000fa
:0400f400f60300000f
:020000040000fa
:0400f800f60300000b
:020000040000fa
:0400fc00f603000007
:020000040000fa
:04010000f603000002
:020000040000fa
:04010400f6030000fe
:020000040000fa
:04010800f6030000fa
:020000040000fa
:04010c00f6030000f6
:020000040000fa
:04011000f6030000f2
:020000040000fa
:04011400f6030000ee
:020000040000fa
:04011800f6030000ea
:020000040000fa
:04011c00f6030000e6
:020000040000fa
:04012000f6030000e2
:020000040000fa
:04012400f6030000de
:020000040000fa
:04012800f6030000da
:020000040000fa
:04012c00f6030000d6
:020000040000fa
:04013000f6030000d2
:020000040000fa
:04013400f6030000ce
:020000040000fa
:04013800f6030000ca
:020000040000fa
:04013c00f6030000c6
:020000040000fa
:04014000f6030000c2
:020000040000fa
:04014400f6030000be
:020000040000fa
:04014800f6030000ba
:020000040000fa
:04014c00f6030000b6
:020000040000fa
:04015000f6030000b2
:020000040000fa
:04020800f6030000f9
:020000040000fa
:04020c00f6030000f5
:020000040000fa
:04021000f6030000f1
:020000040000fa
:04021400f6030000ed
:020000040000fa
:04021800f6030000e9
:020000040000fa
:04021c00f6030000e5
:020000040000fa
:04022000f6030000e1
:020000040000fa
:04022400f6030000dd
:020000040000fa
:04022800c802000008
:020000040000fa
:04022c00f6030000d5
:020000040000fa
:04023000f6030000d1
:020000040000fa
:04023400f6030000cd
:020000040000fa
:04023800f6030000c9
:020000040000fa
:04023c00f6030000c5
:020000040000fa
:04024000f6030000c1
:020000040000fa
:04024400f6030000bd
:020000040000fa
:04024800f6030000b9
:020000040000fa
:04024c00f6030000b5
:020000040000fa
:04025000f6030000b1
:020000040000fa
:04025400f6030000ad
:020000040000fa
:04025800f6030000a9
:020000040000fa
:04025c00f6030000a5
:020000040000fa
:04026000f6030000a1
:020000040000fa
:04026400f60300009d
:020000040000fa
:04026800f603000099
:020000040000fa
:04026c00f603000095
:020000040000fa
:04027000f603000091
:020000040000fa
:04027400f60300008d
:020000040000fa
:04027800f603000089
:020000040000fa
:04027c00f603000085
:020000040000fa
:04028000f603000081
:020000040000fa
:04028400f60300007d
:020000040000fa
:04028800f603000079
:020000040000fa
:04028c00f603000075
:020000040000fa
:04029000f603000071
:020000040000fa
:04029400f60300006d
:020000040000fa
:04029800f603000069
:020000040000fa
:04029c00f603000065
:020000040000fa
:0402a000f603000061
:020000040000fa
:0402a400f60300005d
:020000040000fa
:0402a800f603000059
:020000040000fa
:0402ac00f603000055
:020000040000fa
:0402b000f603000051
:020000040000fa
:0402b400f60300004d
:020000040000fa
:0402b800f603000049
:020000040000fa
:0402bc00f603000045
:020000040000fa
:0402c000f603000041
:020000040000fa
:0402c400f60300003d
:020000040000fa
:0402c800f603000039
:020000040000fa
:0402cc00f603000035
:020000040000fa
:0402d000f603000031
:020000040000fa
:0402d400f60300002d
:020000040000fa
:0402d800f603000029
:020000040000fa
:0402dc00f603000025
:020000040000fa
:0402e000f603000021
:020000040000fa
:0402e400f60300001d
:020000040000fa
:0402e800f603000019
:020000040000fa
:0402ec00f603000015
:020000040000fa
:0402f000f603000011
:020000040000fa
:0402f400f60300000d
:020000040000fa
:0402f800f603000009
:020000040000fa
:0402fc00f603000005
:020000040000fa
:04030000f603000000
:020000040000fa
:04030400f6030000fc
:020000040000fa
:04030800f6030000f8
:020000040000fa
:04030c00f6030000f4
:020000040000fa
:04031000f6030000f0
:020000040000fa
:04031400f6030000ec
:020000040000fa
:04031800f6030000e8
:020000040000fa
:04031c00f6030000e4
:020000040000fa
:04032000f6030000e0
:020000040000fa
:04032400f6030000dc
:020000040000fa
:04032800f6030000d8
:020000040000fa
:04032c00f6030000d4
:020000040000fa
:04033000f6030000d0
:020000040000fa
:04033400f6030000cc
:020000040000fa
:04033800f6030000c8
:020000040000fa
:04033c00f6030000c4
:020000040000fa
:04034000f6030000c0
:020000040000fa
:04034400f6030000bc
:020000040000fa
:04034800f6030000b8
:020000040000fa
:04034c00f6030000b4
:020000040000fa
:04035000f6030000b0
:020000040000fa
:10040000af8120000ebf20000e0188000000000018
:10041000000020000000e000020032000001200087
:100420002002880014000700f20007000000e0002e
:1004300003003a00604d2000010020000200370058
:100440000000200001002000810f70000100320038
:1004500014000700000020000000e000020032004d
:100460000000020000000000fc0302000000000089
:100470000040da000000fe004440a9000000200017
:100480000000e0000300320000002000a00188000e
:100490004440a800000006008a1f78008b1f7800e7
:1004a0000000060091018800800478000000eb0045
:1004b0001a003700e284440032a0b4009905ba0063
:1004c000e284440032a0b4009906ba00e2844400f9
:1004d00032a0b4000006eb00476fde00fd07b2005b
:1004e000636ce10003003a00ebff07000000eb0043
:1004f0000a003700606ce10004003a00005deb0088
:100500008b05e900fdff3e00040037006168e10053
:10051000010032000086eb000b00070019c7ba008b
:100520001905ba000e04e00003003a000a00e000da
:10053000e0ff3a0000000600fe07b2009e018800be
:100540008a047800f5ff3700395dba008b05e900b1
:100550000c003200295dba008b05e900080032006a
:100560000c00e00003003a00e284440032a0b40032
:10057000f5ff370019ddba008b05e900faff3a00f4
:100580008904e800e184440032a0b40000000600c1
:1005900000a0fe000000fa008400a9002422ef0061
:1005a0000602a8000000000030108000610060001a
:1005b0000000e000fcff3a00000000004110800055
:1005c00000002400008060000000e000fbff3a0013
:1005d00000408000101088000000000041108000e2
:1005e00000002400008060000000e000fbff3a00f3
:1005f0009040800010108800000000004110800032
:1006000000002400008060000000e000fbff3a00d2
:100610000222ef00000000004110800000002400d2
:10062000008060000000e000fbff3a000622a80006
:100630000000000030108000620060000000e00058
:10064000fcff3a0000000000411080000000240080
:10065000008060000000e000fbff3a0000408000e6
:100660000000a00010108800000000004010800072
:10067000610060000000e000fcff3a001628ef0077
:100680003700370000000000411080000000240007
:10069000008060000000e000fbff3a000662a80056
:1006a00000000000000000004010800062006000b8
:1006b0000000e000fcff32000010800020118800e4
:1006c0001828ef0003003700c04080000000e80059
:1006d000c0408800c1408000101c2000808f500066
:1006e000f9ff3400104080008000e900b040800035
:1006f000808f50000900340000000000411080008d
:1007000000002400008060000000e000fbff3a00d1
:1007100006a2a9000682a8000e0037000000000013
:100720004110800000002400008060000000e00014
:10073000fbff3a0006a2a8000682a8000000000005
:1007400030108000700060000000e000fcff3a0004
:1007500006a2a900b04080000000e800b040880078
:10076000b140800010408000808f5000c5ff3500f0
:1007700000000000411080000000240000806000a4
:100780000000e000fbff3a000642a8000000000065
:1007900030108000640060000000e000fcff3a00c0
:1007a000601680006100600000f0a7000000ea0011
:1007b0000000e9004f00de00004078000080fb00f0
:1007c00061006000611680000100a100010070005e
:1007d00060168800c04080000000e800c04088002b
:1007e0000080fa000080fe00004006000040da00b1
:0807f0000000fe0000000500fe
:020000040000fa
:1007f8000000fa00c822ef00c8e2a8000080eb0061
:10080800601988008400a9009400a800f004200062
:100818002010880000202900301088002022ef00d6
:100828002222ef002002a9000111800090ff2f0072
:1008380000806000001188002062a900011180007a
:10084800f0cf2f000080600000118800f001200028
:100858004011880023e2a90023a2a9006136800084
:1008680000fe2f00008060003000b3006036880072
:100878008580a9009580a90011118000f0f32f0050
:1008880000806000101188002135800000fe2f00d4
:1008980000806000d000b30020358800d000200020
:1008a800201188000602a800000000003010800017
:1008b800610060000000e000fcff3a00000000005a
:1008c8004110800000002400008060000000e0006b
:1008d800fbff3a0000408000101088000000000074
:1008e8004110800000002400008060000000e0004b
:1008f800fbff3a00904080001010880000000000c4
:100908004110800000002400008060000000e0002a
:10091800fbff3a00a0408000101088001628ef0066
:100928000f00370000000000411080000000240084
:10093800008060000000e000fbff3a00b14080004a
:100948004080200000804000104078000000fb003c
:1009580010108800b04080000000e800b040880017
:10096800b140800010408000808f5000edff3500be
:10097800000000004110800000002400008060009a
:100988000000e000fbff3a000642a800000000005b
:1009980030108000640060000000e000fcff3a00b6
:0409a800ffff370016
:020000040000fa
:1009ac00100800000a000000000000000008000011
:1009bc001000000002000000a000190000566900a1
:1009cc0063746f007220480075676f0000000000b0
:0409dc000000000017
:020000040000fa
:0200000401f009
:04000c00820000006e
:020000040000fa
:0200000401f009
:04001000e500000007
:00000001FF
